:020000040000fa
:080000000002040000000000f2
:020000040000fa
:04000800c803000029
:020000040000fa
:04000c0046030000a7
:020000040000fa
:040010008803000061
:020000040000fa
:04001400660300007f
:020000040000fa
:04001800a803000039
:020000040000fa
:04001c00c803000015
:020000040000fa
:04002000c803000011
:020000040000fa
:04002400c80300000d
:020000040000fa
:04002800c803000009
:020000040000fa
:04002c00c803000005
:020000040000fa
:04003000c803000001
:020000040000fa
:0400340010030000b5
:020000040000fa
:04003800c8030000f9
:020000040000fa
:04003c00c8030000f5
:020000040000fa
:04004000c8030000f1
:020000040000fa
:04004400c8030000ed
:020000040000fa
:04004800c8030000e9
:020000040000fa
:04004c00c8030000e5
:020000040000fa
:04005000c8030000e1
:020000040000fa
:04005400c8030000dd
:020000040000fa
:04005800c8030000d9
:020000040000fa
:04005c00c8030000d5
:020000040000fa
:04006000c8030000d1
:020000040000fa
:04006400c8030000cd
:020000040000fa
:04006800c8030000c9
:020000040000fa
:04006c00c8030000c5
:020000040000fa
:04007000c8030000c1
:020000040000fa
:04007400c8030000bd
:020000040000fa
:04007800c8030000b9
:020000040000fa
:04007c00c8030000b5
:020000040000fa
:04008000c8030000b1
:020000040000fa
:04008400c8030000ad
:020000040000fa
:04008800c8030000a9
:020000040000fa
:04008c00c8030000a5
:020000040000fa
:04009000c8030000a1
:020000040000fa
:04009400c80300009d
:020000040000fa
:04009800c803000099
:020000040000fa
:04009c00c803000095
:020000040000fa
:0400a000c803000091
:020000040000fa
:0400a400c80300008d
:020000040000fa
:0400a800c803000089
:020000040000fa
:0400ac00c803000085
:020000040000fa
:0400b000c803000081
:020000040000fa
:0400b400c80300007d
:020000040000fa
:0400b800c803000079
:020000040000fa
:0400bc00c803000075
:020000040000fa
:0400c000c803000071
:020000040000fa
:0400c400c80300006d
:020000040000fa
:0400c800c803000069
:020000040000fa
:0400cc00c803000065
:020000040000fa
:0400d000c803000061
:020000040000fa
:0400d400c80300005d
:020000040000fa
:0400d800c803000059
:020000040000fa
:0400dc00c803000055
:020000040000fa
:0400e000c803000051
:020000040000fa
:0400e400c80300004d
:020000040000fa
:0400e800c803000049
:020000040000fa
:0400ec00c803000045
:020000040000fa
:0400f000c803000041
:020000040000fa
:0400f400c80300003d
:020000040000fa
:0400f800c803000039
:020000040000fa
:0400fc00c803000035
:020000040000fa
:04010000c803000030
:020000040000fa
:04010400c80300002c
:020000040000fa
:04010800c803000028
:020000040000fa
:04010c00c803000024
:020000040000fa
:04011000c803000020
:020000040000fa
:04011400c80300001c
:020000040000fa
:04011800c803000018
:020000040000fa
:04011c00c803000014
:020000040000fa
:04012000c803000010
:020000040000fa
:04012400c80300000c
:020000040000fa
:04012800c803000008
:020000040000fa
:04012c00c803000004
:020000040000fa
:04013000c803000000
:020000040000fa
:04013400c8030000fc
:020000040000fa
:04013800c8030000f8
:020000040000fa
:04013c00c8030000f4
:020000040000fa
:04014000c8030000f0
:020000040000fa
:04014400c8030000ec
:020000040000fa
:04014800c8030000e8
:020000040000fa
:04014c00c8030000e4
:020000040000fa
:04015000c8030000e0
:020000040000fa
:04015400c8030000dc
:020000040000fa
:04015800c8030000d8
:020000040000fa
:04015c00c8030000d4
:020000040000fa
:04016000c8030000d0
:020000040000fa
:04016400c8030000cc
:020000040000fa
:04016800c8030000c8
:020000040000fa
:04016c00c8030000c4
:020000040000fa
:04017000c8030000c0
:020000040000fa
:04017400c8030000bc
:020000040000fa
:04017800c8030000b8
:020000040000fa
:04017c00c8030000b4
:020000040000fa
:04018000c8030000b0
:020000040000fa
:04018400c8030000ac
:020000040000fa
:04018800c8030000a8
:020000040000fa
:04018c00c8030000a4
:020000040000fa
:04019000c8030000a0
:020000040000fa
:04019400c80300009c
:020000040000fa
:04019800c803000098
:020000040000fa
:04019c00c803000094
:020000040000fa
:0401a000c803000090
:020000040000fa
:0401a400c80300008c
:020000040000fa
:0401a800c803000088
:020000040000fa
:0401ac00c803000084
:020000040000fa
:0401b000c803000080
:020000040000fa
:0401b400c80300007c
:020000040000fa
:0401b800c803000078
:020000040000fa
:0401bc00c803000074
:020000040000fa
:0401c000c803000070
:020000040000fa
:0401c400c80300006c
:020000040000fa
:0401c800c803000068
:020000040000fa
:0401cc00c803000064
:020000040000fa
:0401d000c803000060
:020000040000fa
:0401d400c80300005c
:020000040000fa
:0401d800c803000058
:020000040000fa
:0401dc00c803000054
:020000040000fa
:0401e000c803000050
:020000040000fa
:0401e400c80300004c
:020000040000fa
:0401e800c803000048
:020000040000fa
:0401ec00c803000044
:020000040000fa
:0401f000c803000040
:020000040000fa
:0401f400c80300003c
:020000040000fa
:0401f800c803000038
:020000040000fa
:0401fc00c803000034
:020000040000fa
:04020800c803000027
:020000040000fa
:04020c0046030000a5
:020000040000fa
:04021000880300005f
:020000040000fa
:04021400660300007d
:020000040000fa
:04021800a803000037
:020000040000fa
:04021c00c803000013
:020000040000fa
:04022000c80300000f
:020000040000fa
:04022400c80300000b
:020000040000fa
:04022800c803000007
:020000040000fa
:04022c00c803000003
:020000040000fa
:04023000c8030000ff
:020000040000fa
:0402340010030000b3
:020000040000fa
:04023800c8030000f7
:020000040000fa
:04023c00c8030000f3
:020000040000fa
:04024000c8030000ef
:020000040000fa
:04024400c8030000eb
:020000040000fa
:04024800c8030000e7
:020000040000fa
:04024c00c8030000e3
:020000040000fa
:04025000c8030000df
:020000040000fa
:04025400c8030000db
:020000040000fa
:04025800c8030000d7
:020000040000fa
:04025c00c8030000d3
:020000040000fa
:04026000c8030000cf
:020000040000fa
:04026400c8030000cb
:020000040000fa
:04026800c8030000c7
:020000040000fa
:04026c00c8030000c3
:020000040000fa
:04027000c8030000bf
:020000040000fa
:04027400c8030000bb
:020000040000fa
:04027800c8030000b7
:020000040000fa
:04027c00c8030000b3
:020000040000fa
:04028000c8030000af
:020000040000fa
:04028400c8030000ab
:020000040000fa
:04028800c8030000a7
:020000040000fa
:04028c00c8030000a3
:020000040000fa
:04029000c80300009f
:020000040000fa
:04029400c80300009b
:020000040000fa
:04029800c803000097
:020000040000fa
:04029c00c803000093
:020000040000fa
:0402a000c80300008f
:020000040000fa
:0402a400c80300008b
:020000040000fa
:0402a800c803000087
:020000040000fa
:0402ac00c803000083
:020000040000fa
:0402b000c80300007f
:020000040000fa
:0402b400c80300007b
:020000040000fa
:0402b800c803000077
:020000040000fa
:0402bc00c803000073
:020000040000fa
:0402c000c80300006f
:020000040000fa
:0402c400c80300006b
:020000040000fa
:0402c800c803000067
:020000040000fa
:0402cc00c803000063
:020000040000fa
:0402d000c80300005f
:020000040000fa
:0402d400c80300005b
:020000040000fa
:0402d800c803000057
:020000040000fa
:0402dc00c803000053
:020000040000fa
:0402e000c80300004f
:020000040000fa
:0402e400c80300004b
:020000040000fa
:0402e800c803000047
:020000040000fa
:0402ec00c803000043
:020000040000fa
:0402f000c80300003f
:020000040000fa
:0402f400c80300003b
:020000040000fa
:0402f800c803000037
:020000040000fa
:0402fc00c803000033
:020000040000fa
:04030000c80300002e
:020000040000fa
:04030400c80300002a
:020000040000fa
:04030800c803000026
:020000040000fa
:04030c00c803000022
:020000040000fa
:04031000c80300001e
:020000040000fa
:04031400c80300001a
:020000040000fa
:04031800c803000016
:020000040000fa
:04031c00c803000012
:020000040000fa
:04032000c80300000e
:020000040000fa
:04032400c80300000a
:020000040000fa
:04032800c803000006
:020000040000fa
:04032c00c803000002
:020000040000fa
:04033000c8030000fe
:020000040000fa
:04033400c8030000fa
:020000040000fa
:04033800c8030000f6
:020000040000fa
:04033c00c8030000f2
:020000040000fa
:04034000c8030000ee
:020000040000fa
:04034400c8030000ea
:020000040000fa
:04034800c8030000e6
:020000040000fa
:04034c00c8030000e2
:020000040000fa
:04035000c8030000de
:020000040000fa
:04035400c8030000da
:020000040000fa
:04035800c8030000d6
:020000040000fa
:04035c00c8030000d2
:020000040000fa
:04036000c8030000ce
:020000040000fa
:04036400c8030000ca
:020000040000fa
:04036800c8030000c6
:020000040000fa
:04036c00c8030000c2
:020000040000fa
:04037000c8030000be
:020000040000fa
:04037400c8030000ba
:020000040000fa
:04037800c8030000b6
:020000040000fa
:04037c00c8030000b2
:020000040000fa
:04038000c8030000ae
:020000040000fa
:04038400c8030000aa
:020000040000fa
:04038800c8030000a6
:020000040000fa
:04038c00c8030000a2
:020000040000fa
:04039000c80300009e
:020000040000fa
:04039400c80300009a
:020000040000fa
:04039800c803000096
:020000040000fa
:04039c00c803000092
:020000040000fa
:0403a000c80300008e
:020000040000fa
:0403a400c80300008a
:020000040000fa
:0403a800c803000086
:020000040000fa
:0403ac00c803000082
:020000040000fa
:0403b000c80300007e
:020000040000fa
:0403b400c80300007a
:020000040000fa
:0403b800c803000076
:020000040000fa
:0403bc00c803000072
:020000040000fa
:0403c000c80300006e
:020000040000fa
:0403c400c80300006a
:020000040000fa
:0403c800c803000066
:020000040000fa
:0403cc00c803000062
:020000040000fa
:0403d000c80300005e
:020000040000fa
:0403d400c80300005a
:020000040000fa
:0403d800c803000056
:020000040000fa
:0403dc00c803000052
:020000040000fa
:0403e000c80300004e
:020000040000fa
:0403e400c80300004a
:020000040000fa
:0403e800c803000046
:020000040000fa
:0403ec00c803000042
:020000040000fa
:0403f000c80300003e
:020000040000fa
:0403f400c80300003a
:020000040000fa
:0403f800c803000036
:020000040000fa
:0403fc00c803000032
:020000040000fa
:100400008f8220000e7f22000e0188000000000075
:10041000000020000000e000020032000001200087
:100420002002880014000700db0007000000e00045
:1004300003003a00406a200001002000020037005b
:100440000000200001002000810f70000100320038
:1004500014000700000020000000e000020032004d
:100460000000020000000000aa04020000000000da
:100470000040da000000fe004440a90020002000f7
:100480000000e0000300320010002000900188000e
:100490004440a800000006008a1f78008b1f7800e7
:1004a00000000600a1028800800478000000eb0034
:1004b0001f003700e284440054a0b4009905ba003c
:1004c000e284440054a0b4009906ba00e2844400d7
:1004d00054a0b4000006eb00476fde00fd07b20039
:1004e000ae018800636ce10003003a00eaff0700f8
:1004f0000000eb000e003700606ce10008003a00dd
:10050000004deb000a05e800020039003420ec0041
:100510000af0a0008b05e900f9ff3e000400370057
:100520006168e100010032000086eb000b0007006b
:1005300019c7ba001905ba000e04e00003003a001a
:100540000a00e000dbff3a0000000600fe07b200f0
:10055000ae0288008a047800f5ff37000cd0a300b3
:10056000e20f4d001c00390089027800354dba00b9
:100570000a05e800020039003420ec000af0a0006f
:100580008b05e9000f003200254dba000a05e8008e
:10059000020039003420ec000af0a0008b05e900cd
:1005a000080032000c00e0000600320015cdba0051
:1005b0000a05e800020039003420ec000af0a0002f
:1005c0008b05e9008984e80054a0b4000b00e0002a
:1005d000e2ff3a00000006009902ba00055d7800cb
:1005e0008b05e900f7ff3200c82ade00055d7800c0
:1005f0008b05e900f3ff32000c00e000f1ff320050
:1006000019ddba00eeff3700b80504000000000055
:100610008a0404000000000034050400000000000b
:100620003600f800809fbe00829fbe00849fbe00ff
:10063000869fbe000000fa00104080000000e0002d
:100640000200320010408000000001007082200093
:10065000104078008040e800708220000148780057
:100660006082200011c0b300014878008460a900b6
:100670000080fa004f03be004f02be004f01be00d3
:100680004f00be003600f900004006003600f800ba
:10069000809fbe00829fbe00849fbe00869fbe00da
:1006a0000000fa008020a9000000eb00b70107005d
:1006b0000080fa004f03be004f02be004f01be0093
:1006c0004f00be003600f900004006003600f8007a
:1006d000809fbe00829fbe00849fbe00869fbe009a
:1006e0000000fa00ae0107008040a90010002000c1
:1006f000a60107000080fa004f03be004f02be00b3
:100700004f01be004f00be003600f9000040060059
:100710003600f800809fbe00829fbe00849fbe000e
:10072000869fbe000000fa008060a9002000200023
:10073000960107000080fa004f03be004f02be0082
:100740004f01be004f00be003600f9000040060019
:100750003600f800809fbe00829fbe00849fbe00ce
:10076000869fbe000000fa008080a90030002000b3
:10077000860107000080fa004f03be004f02be0052
:100780004f01be004f00be003600f90000400600d9
:0c0790000040da000000fe000000050040
:020000040000fa
:10079c000000fa002022a9000080fa0000000600e8
:1007ac000200fa00000f78001e007800e30f5000e2
:1007bc0022003200e30f500005003e00e10f500014
:1007cc0012003200e10f500016003e000900370005
:1007dc00e50f500025003200e50f50001d003900d8
:1007ec00e60f500027003200e70f50002b003200bc
:1007fc002e0037004111800000fe2f0000806000a9
:10080c00a000b3004011880028003700411180007f
:10081c0000fe2f0000806000d000b3004011880063
:10082c00220037004111800000fe2f000080600084
:10083c00e000b300401188001c003700411180001b
:10084c0000fe2f0000806000b001b3004011880052
:10085c00160037004111800000fe2f000080600060
:10086c00c001b30040118800100037004111800016
:10087c0000fe2f0000806000d001b3004011880002
:10088c000a0037004111800000fe2f00008060003c
:10089c00e001b300401188000400370040118000d3
:1008ac00f001b30040118800000000000080fa0045
:1008bc00000006000400fa001007980001108000e8
:1008cc00010f78001e0078000080fa00000006007e
:1008dc000400fa0010079800001180000040780016
:1008ec00614060000080fb0000f0a7000000ea00ff
:1008fc000000ea004f00de00004f78001e40780038
:10090c000080fa00000006000000fa00200c8000b5
:10091c004a00de00614060000004a20061406000fb
:10092c000080fb00610060004a00dd00210c8000ab
:10093c0001a0a10001007000200c880094ff0700aa
:10094c000080fa00000006000000fa0020010700f9
:10095c000000eb0092ff07008dff0700a04820006d
:10096c0041000700480007000100370000000000ac
:10097c000000eb00d6ff07000004e000fbff320094
:10098c000000eb00cbff07000000e00003003a0082
:10099c001000200017000700f5ff37000000eb00e7
:1009ac00c4ff070013000700f1ff37000000fa0036
:1009bc004c22ef0010f42000701288000003280075
:1009cc0080128800104080000000e00002003a0015
:1009dc0040532000240007008460a9009460a80004
:1009ec00608220008040eb00014878000080fa0013
:1009fc00000006000200fa00000f78009e0078004c
:100a0c0071128800608220008040eb000148780061
:100a1c000080fa00000006000000fa00701280004e
:100a2c000080fa00000006000200fa00000f7800b7
:100a3c009e00780061128800608220008040eb00ec
:100a4c00014878000080fa00000006000000fa005f
:100a5c00601280000080fa00000006000000fa001e
:100a6c000080fa00000006000200fa00000f780077
:100a7c009460a9009e007800114088009460a80042
:100a8c000080fa00000006000000fa0060822000de
:100a9c008040eb00014878009460a80051e2a80067
:100aac000080fa00000006000000fa0051e2a900e4
:100abc009460a9000080fa00000006000200fa0011
:100acc0060822000104f78001e4078000004e00087
:100adc0003003200608220008040eb000148780067
:100aec001e4078000080fa00000006000000fa00aa
:100afc0070822000104078000080fb000080fa001b
:100b0c00000006000000fa00708220008040eb001c
:100b1c00014878000080fa00000006000000fa008e
:100b2c0040002800001188002222ef002422ef0050
:100b3c002822ef002a22ef002c22ef002e22ef00b9
:100b4c003022ef003422ef003822ef003a22ef007f
:100b5c009e21ef00805b2000050007000080fa005a
:100b6c00000006000000fa000080fa0000000600f9
:100b7c000200fa00000f78001e0078000040880088
:100b8c000080fa00000006000000fa00210480003a
:100b9c0000002200008060000000e000060032002f
:100bac00004080000000e0000200320000408000a5
:100bbc000000010085a0a9000080fa0000000600da
:100bcc000000fa002022a8000080fa0000000600b5
:100bdc000000fa002022a9000080fa0000000600a4
:100bec000800fa0030079800101180004200de0067
:100bfc007f4060000080fb00200798000020200050
:100c0c00100798000000eb00000f78000b00370075
:100c1c001e00780000004000be00900000804000e4
:100c2c009e00900091007800010878001e00900052
:100c3c000080e800100798001e0fe8009e00780066
:100c4c002e009000808f5000f1ff36001e007800bf
:100c5c000080fa00000006000000fa0000102300db
:100c6c00100888000621ef006821ef006a21ef00d0
:100c7c006e21ef007021ef007221ef007421ef0064
:100c8c007621ef007a21ef007c21ef007e21ef002e
:100c9c007200200080072000a10920001310200002
:100cac008049780081497800824978000001eb0086
:100cbc00600420007105200003102000804978009a
:100ccc0081497800824978000080fa000000060013
:100cdc000000fa008421ef008e21ef009821ef0034
:100cec0070392000000c88000080eb00500c88004c
:100cfc00f03f2000a00c88005620ef005820ef0099
:100d0c005a20ef006e20ef007020ef007220ef00f1
:100d1c008621ef009021ef009a21ef007000200057
:100d2c00400c8800c0202f00900c88007000200020
:0c0d3c00e00c88000080fa0000000600b7
:020000040000fa
:100d480000080000020000008000000026080000e3
:100d580002000000800000000208000002000000fd
:100d6800800000000608000020000000800000004d
:100d7800040800000200000082000000ffff0000dd
:040d88000000000067
:020000040000fa
:100d8c000200fa00000f78009e00780021408800d5
:100d9c00ffff37000000fa00608020008007780019
:100dac00e0812000000188000080fa0000000600ad
:100dbc000000fa0021058000f0ff28000080600090
:100dcc0000c0a000200588000080fa00000006008a
:100ddc000000fa00beff07009fff0700f4ff0700aa
:100dec004eff0700f1fe07000080fa00000006002d
:020000040000fa
:020000040002f8
:04aff000ffff00005f
:020000040000fa
:020000040002f8
:04aff400fffe00005c
:020000040000fa
:020000040002f8
:04aff800bf3700005f
:020000040000fa
:020000040002f8
:04affc003f3f0000d3
:00000001FF
